:1000000080160020351A0000EB590000211A00006C
:10001000211A0000211A0000211A0000000000002F
:10002000000000000000000000000000E91B0000CC
:10003000211A000000000000B51B0000211A00007A
:10004000751D0000751D0000751D0000751D000068
:10005000751D0000751D0000751D0000751D000058
:10006000751D0000751D0000751D0000751D000048
:10007000751D0000751D0000751D0000751D000038
:10008000751D0000751D0000751D0000751D000028
:10009000751D0000751D0000751D0000751D000018
:1000A000751D0000751D0000751D0000751D000008
:1000B000751D0000751D0000751D0000751D0000F8
:1000C000751D0000751D0000751D0000751D0000E8
:1000D000751D0000751D0000751D0000751D0000D8
:1000E000751D0000751D0000751D0000751D0000C8
:1000F000751D0000751D0000751D0000751D0000B8
:1001000053B94AB9002908BF00281CBF4FF0FF317E
:100110004FF0FF3000F00CB8ADF1080C6DE904CEE3
:1001200000F010F8DDF804E0DDE9022304B07047C8
:10013000704700BF034613F8012B002AFBD1181AA1
:10014000013870472DE9F04786468C460846089EE0
:10015000154674461946002B40F0C2808542B2FA1B
:1001600082F245D94AB1C2F1200300FA02FC2EFA0C
:1001700003F3954043EA0C0C94404FEA154EA8B2A5
:10018000BCFBFEF8230C0EFB18CC08FB00F943EA7D
:100190000C43994528D9EB1808F1FF3704D299454B
:1001A00002D9A8F102072B44A3EB0903A4B2B3FBC5
:1001B000FEFC0EFB1C330CFB00F044EA0344A0429F
:1001C00014D92C190CF1FF3304D2A04202D9ACF19E
:1001D00002032C44241A43EA07401EB1D4400023F2
:1001E00034607360BDE8F0874746DDE76346F1E7BA
:1001F00092BB431B01214FEA154EAFB2B3FBFEFC8D
:10020000200C0EFB1C330CFB07F840EA0343984517
:1002100062D9EB180CF1FF3004D2984502D9ACF149
:1002200002002B44A3EB0803A4B2B3FBFEFC0EFBBD
:100230001C330CFB07F744EA0344A7424ED92C19A0
:100240000CF1FF3304D2A74202D9ACF102032C44D3
:10025000E41B43EA0040C0E7C2F1200320FA03F1A7
:10026000954090402EFA03F303434FEA154EAFB288
:10027000B1FBFEFC0EFB1C10190C0CFB07F841EA4D
:100280000041884504FA02F422D969180CF1FF30C4
:1002900004D2884502D9ACF102002944A1EB08013F
:1002A0009BB2B1FBFEFC0EFB1C110CFB07F743EAF3
:1002B00001439F420ED9EB180CF1FF3104D29F424B
:1002C00002D9ACF102012B44DB1B41EA004192E769
:1002D0006046E3E76146F7E76046A3E76346B7E7B2
:1002E000834206D916B9002108467BE7C6E900E03B
:1002F000F9E7B3FA83F78FB9834201D3724508D87F
:10030000BEEB020460EB030301209C461EB90021F2
:1003100068E73846FAE7C6E9004CF8E7C7F1200C71
:10032000BB4022FA0CF41C432EFA0CF120FA0CF319
:10033000B84001434FEA14490EFA07F5B3FBF9F848
:100340001FFA84FE09FB18300B0C08FB0EFA43EA77
:1003500000439A4502FA07F240D9E31808F1FF304A
:1003600004D29A4502D9A8F102002344A3EB0A0360
:1003700089B2B3FBF9F809FB183308FB0EFE41EA1A
:1003800003418E452CD9611808F1FF3304D28E4504
:1003900002D9A8F10203214443EA0040A0FB0298DD
:1003A000A1EB0E014145CE46434602D306D14D4551
:1003B00004D2B9EB020E68EB04030138002EA6D07C
:1003C000B5EB0E0261EB030101FA0CFC22FA07F314
:1003D0004CEA0303F940C6E9003198E74046C5E717
:1003E0004346D9E7000000002DE9F04F87B00546ED
:1003F000039117461E46836804AA5B689847002845
:1004000031DBDDE9044AA7FB04B307FB0A37584692
:1004100019A3D3E900233946FFF772FEDFF86080A5
:1004200002904FF0FF39D94578EB07031ED3A6FBA6
:1004300004B406FB0A4410A3D3E90023214658461E
:10044000FFF75EFED94578EB040403460ED302990C
:10045000AA6899420DD3BDF840100091146828464F
:10046000DDE90221A04707B0BDE8F08F6FF08500FD
:10047000F9E76FF01500F6E700CA9A3B00000000AC
:10048000FFC99A3B2DE9F04389B0494B0293002301
:10049000CDE9003347490322184604F0A6FF464E33
:1004A000304605F04AFE0446002872D0DFF80C8181
:1004B000DFF80C913F4DD8F800303F4F002B08BFBC
:1004C0004B4604933F4B0024CDE9014303222346CE
:1004D000294620460394009404F087FF3A4B009489
:1004E000CDE90143032223462946204604F07DFF3F
:1004F000B3680793E2B2079B1B698BB100213846B2
:10050000984700280FDA0494304B0293002303909D
:10051000CDE9003301222946184604F066FFCAE7F8
:100520006FF05700EFE74FF4A4700021013404F09E
:10053000FBFA652CDED100214FF4004004F0F4FA00
:10054000234B02930023CDE90033184603222946AA
:1005500004F04BFF184CB36807936427FAB2079B6B
:100560001B6933B1002120469847002804DA04971C
:10057000CAE76FF05700FAE74FF4A470002104F0C7
:10058000D3FA013FEAD200214FF4004004F0CCFA44
:1005900091E7336803930F4B0090CDE901030549C0
:1005A0000346012204F021FF204609B0BDE8F08394
:1005B000716A000054670000886500003807002059
:1005C000686A0000A66A0000BA6A0000DC6A0000DF
:1005D000F26A00008F6A00002DE9F04F91B08407A5
:1005E000009302F004030293C2F3C20303F1010378
:1005F000DDF86890039205460E46059340F0BA81F7
:10060000041D30B1072909D86FF01B0011B0BDE8F7
:10061000F08F01F00706341DC6F10806009B4FF06D
:100620000008591E4FF0040A4FF0FF330193CDF834
:1006300010804746C34653460DB1009A2260059884
:10064000002800F3E8809848009A824203D3974834
:100650008242C0F0E080039AA4EB050E92074FEAB5
:100660009E0000F103810F2F00F2B180002D00F0F9
:10067000058107F140020DEB020C019A0CF8200CE9
:100680000CF8102C049801300490E7E07A285DD82B
:100690004B280ED8472859D829282DD8252852D09C
:1006A00054D820287AD02338D0F1000B4BEB000B24
:1006B00074E04C382E2849D8DFE800F070484848EC
:1006C00048484848484848484B48484848484848A7
:1006D0004859484B4B595959704B6D487048184B05
:1006E000184848827F4B48484B487F0000204FF015
:1006F000000B4FF0040A38E02A38C0B2012202FA97
:1007000000F010EA0E0F49D110F0625C2FD110EA10
:10071000020B43D06046013C5444B4FBFAF40AFB9C
:1007200004F4002D61D0A3EB050CA444B4453FF6BE
:100730006BAF002868D1042B47D159F8043B2360E4
:10074000043404232AE0019A013A01924FF0000B8D
:1007500024E011F8010C6C2834D111F8023C00207F
:100760006C2B8346C5D14FF0080A5346D3E709F1F5
:10077000070929F007090734F9E802AB24F0070458
:1007800035B106982044B0423FF63EAFC4E900AB15
:1007900008344FF0000B4FF0080A534611F8010FD0
:1007A000002878D0BBF1000F7FF470AF2528F5D179
:1007B000019B013301934FF0010B4FF0040AECE76A
:1007C000584694E700208346A5E7082B02D06FF037
:1007D00015001BE709F1070929F00709F9E80223C9
:1007E000C4E9002308340823D8E768B9042B02D1F0
:1007F00009F10409A4E7082BE9D109F1070929F057
:10080000070909F10809EDE7059A013A059259F837
:10081000042B009210E7039A900720D5A4EB050E55
:100820004FEA9E004FF0010CBEF5007FCFD20F2F94
:10083000CDD8F5B107F140020DEB020EC0B2019A1E
:100840000EF8200C0EF8102CBCF1000F3FF41AAF7C
:1008500060F07F000EF8200C08F101080137C5F1A7
:100860000802043406924FF6DA7E97E74FF0000C48
:10087000DAE7BCF1000F01D00136EFE7029802364B
:100880000028EBD10098CDE90631FFF753FCDDE9F4
:1008900006310644E2E7631BB3F5806F97D23DB99A
:1008A000A6F10804E018B1E6A86400007073000027
:1008B000029A28609B082B709DF81030C2B1EB7033
:1008C00085F80280B8F1000F05D008A80022C5F114
:1008D000010C97420ED1C5F101030DF120094FF033
:1008E000000A01930DF1300B574512D1601B8DE6C4
:1008F0006B70E5E710F8013B190608D504EB0C0E08
:10090000B64503F07F033FF67FAE04F8013B0132AA
:10091000DFE7B8F1000F03D099F90020002A17DBB8
:10092000029BD3B11AF80B2004F8012B0022019B83
:1009300098182044B0423FF667AE99F8000004F8DA
:10094000010B00990392204605F02AFD039A1444F6
:100950000AF1010A09F10109C6E799F8002055F8E2
:1009600022300093029B45F822300098FFF7E2FB0B
:10097000421CDCE76FF00D0048E600BF014B186039
:10098000704700BFC004002080B505460E461746DC
:10099000984604F0E7F8034605F07CFDDFF8189070
:1009A000044649F80030424630463946A84754F8D4
:1009B000090001F0ADF800BF080000002DE9F04784
:1009C000058B04462807904611D4022905F0070537
:1009D00040F0CC80204604F037FE78B10138218BFE
:1009E000042811D8DFE800F0C2106D8595000129B8
:1009F0000CBF45F0100545F02005258388F31188CC
:100A0000BFF36F8FBDE8F08701F0070AAA4500F039
:100A1000A5800027B9463E46A368002B00F0BC80A5
:100A200041F00801218388F31188BFF36F8FA1681B
:100A3000002900F0BA800D68002900F0B680D1F8D6
:100A40000480334652462046C047002D76D02B689E
:100A500029461D46F0E701F007035A1F012A1BD85B
:100A6000002221F00701062B276889B2C4E9002281
:100A700009D13B4603E0628B013262831B68002B85
:100A8000F9D141F002012183204604F0DDFD002868
:100A90007AD041F0200176E0042B0AD121F0070141
:100AA00089B22183204604F0CFFD10B141F020012E
:100AB0002183218B01F0070AAA454FD00027B946B0
:100AC000AAE7236921F0070141F00601062DD3F8BA
:100AD000009021832DD1B9F1000F3FD041F00801E2
:100AE000218388F31188BFF36F8F3A492046C847A6
:100AF00029E021F00701236941F0040189B2042DA6
:100B0000D3F804902183E6D000273E464FF0040A34
:100B100082E721F00701236941F0050189B2052D23
:100B2000D3F808902183D6D000273E464FF0050A1F
:100B300072E700273E464FF0060A6DE72B4687E72F
:100B4000B9F1000FD1D1EFF31188202383F312887C
:100B5000BFF36F8F238B23F008032383258BEA06D3
:100B60002ED525F01003238305F007056669218B38
:100B7000002EBFF670AF00232768C4E9003321F0D0
:100B8000070141F001012183218B01F0070AAA45E9
:100B90004FF000097FF440AF002F9CD041F00801D6
:100BA000218388F31188BFF36F8F002FC8D03D6871
:100BB000394633465246204604F072FD2F46F4E78C
:100BC000AB067FF51BAF25F02003238305F0070557
:100BD00000E700BFCD5600002DE9F84F81462F48B1
:100BE0000F4604F00DFE064670B92D4CDFF8B4A098
:100BF0000546A0464FF0010B544507D3B9F1000F4D
:100C000002D04FF0010AE5B9BDE8F88F237B6BB144
:100C10002368DB680BB12046984723681B6943B9FA
:100C2000636804221968204600F0C8F801361034C1
:100C3000E2E7204698470028F2D00BFA06F31D435E
:100C4000F4E7A94695FAA5F4B4FA84F40AFA04F391
:100C5000260108EB04146FEA030B25EA0305237B46
:100C600063B158F806301B6993B94644042273688F
:100C70002046196809EA0B0900F0A0F8002DE1D11F
:100C800027B14FF4A470002103F04EFF4D46BAE7A0
:100C9000204698470028F1D1E7E700BF440700202D
:100CA00084670000A4670000014B53F820007047E0
:100CB000B867000008B5034608462BB1044A136024
:100CC00000F082FA002008BD6FF01500FBE700BFBE
:100CD000C4040020054A064800231370054A136027
:100CE000054A4FF400411360FFF7E4BFA00800205D
:100CF000FD5700003C0700204007002070B50B4D59
:100D0000297841B90120FFF767FF094C094EB44229
:100D100002D301232B7070BD63685B791BB123681C
:100D200020469B6898471034F1E700BFA0080020D8
:100D300084670000A467000010B50446084804F06A
:100D40005FFD5CB1BFF35B8F064B53E8001F0139B9
:100D500043E80012002AF8D1BFF35B8F10BD00BF3B
:100D60003C0700204007002070B50A4B0A4C1B6866
:100D70000A4E05469847A860B44200D370BD636828
:100D80005B7923B1236829461B68204698471034B5
:100D9000F2E700BFC404002084670000A4670000DD
:100DA000044A054B9B1AB1EBD30F34BF52F8310004
:100DB000002070471C67000084670000084BC31ABE
:100DC00010B41B1144680133237143689A7143685E
:100DD0001960436801225A7110BC04F033BD00BF92
:100DE000846700002DE9F04F87B004AFD7E90EA962
:100DF0003D6B04460E4693469846BAF1000F1ED04E
:100E0000C7F80490CDF8009010217A6B534600206B
:100E1000FFF7E2FBB0F5006F014611D340F2FF731C
:100E20000393194B02930023CDE9003317490222A3
:100E3000184604F023FD0C37BD46BDE8F08F51463F
:100E400004F007040BF0070BE40044EA8B1444EAB7
:100E5000412444EA055417350D4425F00705ADEB50
:100E6000050D04ADBAF1000F07D0CDF800907A6BF4
:100E7000534605F11000FFF7AFFB434622463146CB
:100E8000284604F0E2FCD6E7376B00003C67000020
:100E9000406820B1034BC01A40F3CF0070474FF0B9
:100EA000FF3070471C6700000EB403B503AB01466A
:100EB00053F8042B0448019301F002F902B05DF8E5
:100EC00004EB03B0704700BFB9580000CA0605D450
:100ED0008B064CBF02490349FFF7E6BF704700BFCE
:100EE000706B00006F6B00002DE9F04F87B0044677
:100EF0009DF844600D4690469946002E00F0A28071
:100F0000159B03F0020A03F001030493159B03F001
:100F1000080B03F48073059304F095FC0246002847
:100F20003DD095492046FFF7BFFF0746BAF1000FB5
:100F300009D0159B13F0440F33D190492A4620461F
:100F4000FFF7B2FF0744049B53B18D4B8D4953F813
:100F500026208D4B2046002A08BF1A46FFF7A4FF23
:100F6000059B002B49D0BBF1000F64D1B8F1000FF5
:100F700066D0864942462046FFF796FF0546129BFB
:100F80003D44002B6DD1149B002B73D1159BDB07C7
:100F900000F1EB8015992046FFF798FFD8E007464F
:100FA000C4E77B4B18680028CCD07A4B4FF47A7A90
:100FB0001B68B5FBF3F54FF46161B5FBF0F300FB83
:100FC00013550AFB05F54FF03C0CB3FBF1F201FBA6
:100FD0001231B5FBF0FEB1FBFCF300FB1E550CFB20
:100FE00013110AFB05F50091B5FBF0F56A49CDE94F
:100FF00001E52046FFF758FFA4E7BBF1000F1DD025
:10100000664B674953F826202046FFF74DFF0546FB
:10101000B8F1000F05D05D4942462046FFF744FF76
:101020000544B9F1000FAAD05E494A462046FFF7B1
:101030003BFF0544A3E74FF00009E1E75D46E7E722
:1010400045469CE7B9F1010F129B06D1002B66D1F2
:10105000149B002B7CD000250CE0002BF8D05248CC
:101060005EE05248129B5249224604F0ADFA149BAE
:10107000002B6AD0DFF83C81DFF83C91149F159972
:10108000102F204628BF1027FFF720FF4FF0000B3E
:101090005D4547DC139B49461A782046FFF704FF5D
:1010A0004FF0010B1BF0070F03D141462046FFF71D
:1010B000FBFE5F453DD9139B494613F80B202046A4
:1010C000FFF7F2FE0BF1010BBBF1100FEAD13B4928
:1010D000DFF8ECB020464FF0000AFFF7E5FE52467D
:1010E000139B9A5CA2F120015F2928BF2E2259464A
:1010F0002046FFF7D9FE0AF1010ABAF1100F1DD000
:101100001AF0070F03D141462046FFF7CDFE5745A1
:101110005246E5D841462046FFF7C6FEEBE7234896
:1011200035469FE741462046FFF7BEFE0BF1010B17
:10113000AEE724492046FFF7B7FEC3E7139B3B44C5
:101140001393149BDB1B149398D1002E7FF41EAFD6
:101150006268A1682068D2E9002304F09FFB6368FD
:1011600000221A6007B0BDE8F08F074A0549204603
:10117000FFF79AFE0EE700BF776B00007B6B000065
:10118000C8670000B76A0000726B0000A06B000027
:101190004C07002048070020846B0000DC6700003B
:1011A000A46B0000AA6B0000D5580000B9580000DD
:1011B000C1200000B76B0000AF6B0000B96B0000EE
:1011C000BB6B0000B56B0000074A00210123904271
:1011D00006D8064A01B901231360054B1860704711
:1011E00040085B000121F2E740420F004807002061
:1011F0004C070020014B01221A707047A108002003
:10120000014B0020196070476407002010B5064BA1
:1012100018680C46FFF748FD21460346BDE810401C
:1012200002480F22184700BF640700200C68000026
:10123000F8B5094D094B0A4ED5E9004701221A704D
:101240000CB92C60F8BD214630463A4600F00AF849
:10125000241A0644F4E700BF58070020A208002023
:10126000A3080020F8B5194D07460E46042432465F
:101270003946002002F08CFFC8B101232B70144BBB
:101280001B782BB93046F8BD5CB92C704FF0FF3499
:10129000002002F0C1FF0028F4D02B78002BF3D1FE
:1012A000F0E7013C41F2883004F042FFF0E72B7890
:1012B00013B1013C04D12C702B78002BD7D1E1E77E
:1012C00041F2883004F034FFF6E700BFA1080020A7
:1012D000A2080020F8B5074F0D4604464618B44250
:1012E00001D12846F8BD14F8011BBB6801485B68B2
:1012F0009847F4E74C650000014B036000207047FD
:101300005068000008B5044804F091F9BDE80840B1
:10131000024804F08CB900BF086C00003D6C00006E
:1013200070B5064686B00D46002938D08B68059307
:101330004B6804930B6803930024244B24490293C5
:10134000012223462046CDE9004404F03AFB6B69B4
:1013500005932B690493EB6803931E4B1C4900947F
:10136000CDE9014301222346204604F02AFBEB6924
:101370000393194B16490094CDE9014301222346FA
:10138000204604F01EFBAB690393144B10490094F4
:10139000CDE9014301222346204604F012FB012E31
:1013A0000DD1EFF30583103B03930D4B0293002304
:1013B000CDE9003306493246184604F002FB2946BF
:1013C000304606B0BDE8704002F046BF6B6C0000CE
:1013D000646700009A6C0000C96C0000D86C0000C3
:1013E000066D000030BFFFF7FDBF00BF2DE9F041E3
:1013F0000B4EDFF8308006EB0807CC1B0546324663
:101400000949204604F0CCFFA01942460021083CBF
:1014100004F0D4FF2C6707F10800BDE8F08100BF9D
:101420000000000004000000A4670000074A936861
:1014300093F90E10002907DB526993421FBF044A3B
:10144000536843F080535360704700BF6808002022
:1014500000ED00E0F0B585B00024434B0293CDE9E8
:101460000044234607460E4601224049204604F028
:10147000C3FA3F4B9B6ADB0465D53E4B3B49009466
:10148000CDE9014320462346012204F0B5FA172096
:10149000374B9B6A1D050AD5374B0293002318462C
:1014A000CDE900333149012204F0A6FA1820304D6D
:1014B000AB6A9C051FD50024304B029301222346C2
:1014C0002046CDE90044294904F096FAAB6BAA6A9C
:1014D00010040FD503932A4B24490094CDE901430E
:1014E00001222346204604F087FA1FB1AB6A23F499
:1014F0000043AB6219201E4B9B6A59050AD5214B4C
:10150000029300231846CDE900331849012204F064
:1015100073FA1A20164A936A13F4807315D01A4B83
:10152000029300231846CDE900331049012204F04C
:1015300063FA1B200E4A936A43F47F4393620023AD
:10154000337005B0F0BD1620A2E7926A9204F1D57F
:101550000E4A06490093CDE901321846012204F0F3
:101560004BFA1C20E6E700BF196D0000646700001D
:1015700000ED00E02F6D0000406D0000536D000095
:101580006C6D0000816D00009C6D0000B46D00006A
:101590001FB50024374B029301222346CDE90044B6
:1015A0003549204604F028FA344B9B6A9A015ED5EF
:1015B000334B31490094CDE90143204623460122B3
:1015C00004F01AFA1E202D4B9B6ADB010AD52D4B25
:1015D000029300231846CDE900332749012204F085
:1015E0000BFA1F20254B9B6A1C030AD5264B02933E
:1015F00000231846CDE900331F49012204F0FCF90D
:1016000021201E4B9B6A59030AD5204B02930023CD
:101610001846CDE900331849012204F0EDF92220E3
:10162000164B9B6A9A030AD5194B0293002318465E
:10163000CDE900331049012204F0DEF923200F4BDD
:101640009B6ADB030AD5134B029300231846CDE9AE
:1016500000330949012204F0CFF92420074A936A94
:101660006FEA03436FEA1343936204B010BD1D2079
:10167000A9E700BFE36D00006467000000ED00E033
:10168000FB6D00000E6E0000286E0000466E00002C
:101690006B6E0000856E00002DE9F04385B00024DC
:1016A0004D4B0293CDE900442346804689461646B9
:1016B0004A490122204604F09FF9494B9B6ADF0604
:1016C00040D5484B0094CDE9014320462346434989
:1016D000012204F091F91124414B9B6A1D070AD5A0
:1016E000414B02930023CDE900333C4901221846C7
:1016F00004F082F912243A4DAB6A980724D50024ED
:101700003A4B36490293CDE9004423460122204654
:1017100004F072F96F6BAB6A190659D5344B2F4937
:101720000397CDE90143009423460122204604F0AB
:1017300063F9B9F1000F03D0AB6A23F08003AB6209
:10174000132403E01024C7E76FF01507244B9B6AAE
:10175000DA070AD5274B02930023CDE900331F494E
:101760000122184604F048F914241D4B9B6A9B067D
:101770000AD5214B02930023CDE9003317490122FA
:10178000184604F039F91524154B9A6AD50602D487
:101790009A6A90070AD55B68190507D5414638460D
:1017A00000F09EFA10B180F3098802240C4B9A6A6B
:1017B000920642BF5A6A22F400525A629A6A42F072
:1017C000FF029A6220460023337005B0BDE8F08323
:1017D0006FF01507B4E700BFB06E0000646700004B
:1017E00000ED00E0C66E0000406D0000F96E0000E4
:1017F000116F0000276F0000B46D00002DE9F0416B
:10180000754B5F6890B00446C7F30806002383F366
:101810001188BFF36F8F02F07F40B0F17F4F0CD182
:1018200002F00C00082819D16C4A6D490093CDE9EB
:1018300001321846012204F0DFF800252C464FF053
:101840000008F31E8DF81F80092B00F2AC80DFE842
:1018500003F00BA0A49DAAAAAAAAAAA8120746BF91
:101860000C461D460125EAE75E4B5D495A4FCDF80F
:101870000080CDE9018300230122184604F0BCF862
:101880008DF81F80FE6A16F0020605D0564BCDF883
:101890000080CDE9018306E0FB6A002B0BDA534B95
:1018A0000096CDE9016300234D490122184604F05A
:1018B000A3F800223CE0FB6A5B00FAD54C4B484998
:1018C0000096CDE9016301223346304604F094F8D6
:1018D0007B69A26943F480737B61BFF34F8FBFF3D1
:1018E0006F8F7B6932F8022C23F480737B61BFF326
:1018F0004F8FBFF36F8F4DF602739A420BD0BB6AC6
:10190000DBB2002B34D00DF11F0201212046FFF77E
:10191000C3FE02460CE023680393364B3049009621
:10192000CDE9016301223346304604F065F82268B0
:101930009DF81F30CBB908AE04F12007206861681C
:10194000334603C30834BC421E46F7D10F9B002D1B
:101950003DD0C3F3080121B96FEA53236FEA432353
:101960000F9308A91046FFF7DBFC10B0BDE8F0812B
:10197000BB6A13F47F4F05D00DF11F010120FFF763
:1019800069FDC6E7BB6AB3F5803F92D3FFF700FE5F
:10199000BFE70DF11F020021B8E70DF11F01002084
:1019A000EDE7154B73E7154A154B0D4917F4F87F12
:1019B00018BF1346103ECDE90336124B02930023A5
:1019C000CDE900330122184604F016F871E723F43C
:1019D000FF7323F00103C3E700ED00E0746F000024
:1019E000646700009F6F0000B66F0000D76F0000B3
:1019F000E56F000004700000207000005B6F0000C5
:101A0000466F000044700000044B5A6942F0100217
:101A10005A615A6922F008025A61704700ED00E0ED
:101A2000EFF30880EFF3098101B57246FFF7E6FE98
:101A300001BD00BF002080F31488BFF36F8F01F059
:101A400089FC00200D490860BFF34F8F0C4880F3DC
:101A5000088800F02BF8202080F3118809484FF403
:101A60000461401880F30988EFF3148002210843D1
:101A700080F31488BFF36F8F00F0FAF894ED00E064
:101A800080160020C00800200749D1F890200023CC
:101A9000C2F307221846934200DB7047C1F8983022
:101AA000C1F8A0000133F6E700ED00E008B572B61A
:101AB000002383F31388FFF7E7FF144B4FF0FF3247
:101AC000C3F88020C3F88420C3F88820C3F88C2092
:101AD000C3F89020C3F89420C3F89820C3F89C2042
:101AE000C3F88021C3F88421C3F88821C3F88C216E
:101AF000C3F89021C3F89421C3F89821C3F89C211E
:101B000062B6BFF34F8FBFF36F8F08BD00E100E0F7
:101B1000084B9B6883420BD1EFF3058343B1064B1F
:101B20005A6842F080525A605A6A22F400425A625D
:101B300004F0FBBB6808002000ED00E0094A936850
:101B40006FF00A019967084958674B6843F0805362
:101B50004B60002383F31188BFF36F8F9368986FF6
:101B6000704700BF6808002000ED00E010B5044693
:101B7000EFF31183202383F31288BFF36F8F0A4B97
:101B800058699860094B4FF000625A60084B026F29
:101B90001A600022436F426783F31188BFF36F8F8F
:101BA00000F006F9204610BD6808002000ED00E0B6
:101BB0008C0700200B498A684FF030001044EFF387
:101BC000098C80E8F01F74467046FFF7CFFFA646E9
:101BD00004498A6802F1300090E8F01F8CF309880C
:101BE00070470000680800201EF0040F0CBFEFF3E0
:101BF0000880EFF30980816911F8021C0229FFD0E7
:101C000001B503F0EEFE01BD40B2002807DB044A37
:101C10004109012300F01F00834042F82130704742
:101C200000E100E0054B420900F01F0053F82220BC
:101C3000012303FA00F01040704700BF00E100E00C
:101C400040B20028A8BF00F1604001F10101B8BF17
:101C5000064B4FEA4111ACBF00F5614000F00F00A8
:101C6000C9B2B4BF195480F80013704714ED00E0F6
:101C70000B4A08B50B4B22F07F029A60BFF34F8FDF
:101C8000BFF36F8FD3F8882022F47002C3F8882046
:101C900002F0C0FB02F0F2FF00F060F802F0FEFB81
:101CA0000000000000ED00E042F8203C009B42F8FC
:101CB0001C3C0A49019B42F8183C029B42F8143C28
:101CC00021F001014FF0807342F8043C42F8081CF7
:101CD0000023203A02654367704700BF890900006E
:101CE000094A0346906870B113F1160F006E05D0D3
:101CF000A0F140029A4205D8834203D2814228BF14
:101D000000207047002070476808002008B515467D
:101D10000B4A0C4B9060026F1A600E4600F048F8B8
:101D20002C4686F309884FF00000074B9847204661
:101D30004FF000014FF000024FF00003034C20472A
:101D4000680800208C070020215A00008909000043
:101D5000014B10221A61704700ED00E00448002397
:101D60002021C2180133302B82F80013F9D17047BB
:101D700000E100E008B5EFF30583064A103B02EBF3
:101D8000C30152F8330049688847BDE80840FFF7AF
:101D90004DBB00BF9C650000024B034A0348012174
:101DA00000F096B8000002200000002050680000FB
:101DB000026E054B403A1A60044A4021C3E9011201
:101DC0001846012100F08EB89007002000000B1586
:101DD0001FB5144AD2F89030C3F30723013B984251
:101DE0000FD9114B029300230390CDE9003318461D
:101DF0000E49012203F047FE6FF0150005B05DF8B3
:101E000004FBC2F898000B6823F01F03034343F060
:101E10001003C2F89C308B6843F00103C2F8A03075
:101E2000ECE700BF00ED00E05B7000005C670000C5
:101E3000F0B50E4689B01F4604460025B54212DAB9
:101E4000606838B3BFB1431E18420FD0134B0293E2
:101E50000023CDE90033124903950122184603F00F
:101E600012FE6FF01502104609B0F0BD1F28EDD923
:101E700021680B42EAD12368059303F0F4FDA368BF
:101E800005A90343D0B20793FFF7A2FF10F1160F85
:101E9000E7D0421C01350C34D0E700BF8170000050
:101EA0005C670000044B0522C3F89420BFF34F8FFA
:101EB000BFF36F8F704700BF00ED00E0BFF35F8F8F
:101EC000024B0022C3F89420704700BF00ED00E0F1
:101ED00010B5034C01232278FFF7AAFF207010BD34
:101EE000A508002008B50B4A00231278FFF7A0FFD1
:101EF00010F1160F07D0084A0021D2F89030C3F332
:101F00000723984200DB08BDC2F89800C2F8A01071
:101F10000130F2E7A508002000ED00E02DE9F043D4
:101F200057485849D0F890300D68C3F307239D42B5
:101F300085B000F2A180FFF7C1FF496800229542F9
:101F400001F10C011AD1504C504F25706846FFF733
:101F5000D3F9DFF83C81DFF83C9106460025AE421C
:101F60001FD1237846490020D1F89020C2F30722E0
:101F700093427BDBFFF796FF00204CE0C0F89820EF
:101F800051F80C3C23F01F03134343F01003C0F837
:101F90009C3051F8043C43F00103C0F8A0300132FA
:101FA000CDE7009800EB05114FEA051CCB683B40DC
:101FB000B3F5000F44D00AD8B3F5001F2ED0B3F507
:101FC000800F34D0B3F5801F10D00135C7E7B3F1CF
:101FD000807F3ED0B3F1007FF7D150F80C30886895
:101FE0004A6803F040FD40F4802009E050F80C30CE
:101FF00088684A6803F037FD40F0885040F430208C
:10200000039001A92078CDE90123FFF7E1FE002824
:1020100028DA6FF0150005B0BDE8F08350F80C30F9
:1020200088684A6803F01FFD40EA0800E8E750F8B6
:102030000C3088684A6803F016FD40EA0900DFE7C3
:1020400050F80C3088684A6803F00DFD40F082704B
:10205000D6E750F80C3088684A6803F004FD40F079
:102060008870CDE7237801332370AEE7C1F898304C
:10207000C1F8A000013377E74FF0FF30CBE700BF96
:1020800000ED00E05C680000A50800200000F0FF03
:10209000000008110000020708B5024B1B689847B2
:1020A000002008BD9C070020034B044A1860937869
:1020B00043F00203937070479C070020D004002077
:1020C000F0B587B007460E46144600211022684638
:1020D0001D4604F073F902238DF802302A46054BA1
:1020E000019321466846CDE9047602F021FF07B04E
:1020F000F0BD00BFA75A000008B50649064821F008
:102100000701C1F1005202F5003203F005FA002088
:1021100008BD00BFC7160020A0070020044A012305
:10212000C2F840354FF080420020C2F87835704741
:1021300000E0014020B1034B800143F00103184748
:10214000704700BFB0670000084B70B5C31A0D465A
:1021500007499B10044659430648402203F0B7FC48
:102160002B4601462046BDE870401847C0070020B6
:10217000B76DDBB61065000073B50C4C0C4A4023FC
:10218000041B00930D460B460A49A4106143064602
:10219000094803F0C7FC011E05DA30462B4602B0A1
:1021A000BDE87040184702B070BD00BFC0070020F6
:1021B0008D5B0000B76DDBB61065000010B5EFF366
:1021C0001184202383F31288BFF36F8F074A1368AB
:1021D00023F00201DB07116002D4012003F0BEFEF0
:1021E00084F31188BFF36F8F10BD00BF100800206B
:1021F000002270B5012104461046FFF721FD0F486B
:1022000001F098F90E4B984215D101F0A3F9266917
:102210000C49304603F067FA00280BDB01253564D2
:102220002469084904F11C0003F05DFA002801DB71
:10223000E564002070BD6FF00400FBE7412300005F
:102240000000AD0B7C6800001FB500220123CDE922
:102250000223094ACDF800D06B46CDF804D003F034
:102260008EFC002805DB4FF480420023684602F014
:10227000A9F905B05DF804FBAB5B000030B4104B6E
:102280000C2202FB003301460020D3E90E52986372
:10229000EFF31180202484F31288BFF36F8F1C6C3E
:1022A00004F0C00444F002041C6480F31188BFF3FE
:1022B0006F8F1DB12B46034830BC184730BC7047A8
:1022C000C00700201065000010B4EFF31182202336
:1022D00083F31288BFF36F8F1748016841F002043F
:1022E0000460C80707D482F31188BFF36F8F012001
:1022F00010BC01F041B94FF08041D1F80C04D1F885
:102300000C14C907EFD5EFF3118083F31288BFF3E4
:102310006F8F0A490B6C03F0C00343F002030B6498
:1023200080F31188BFF36F8F82F31188BFF36F8F33
:10233000002010BCFFF7A2BF10080020C00700203B
:1023400010B1012804D07047034B1B6C5B0701D10F
:10235000FFF794BF704700BFC00700202DE9F04190
:102360003849BFF35B8F0746012251E8003F41E83F
:1023700000200028F9D1BFF35B8F33B932493348CD
:102380004B60CB608A6003F0C1F97B1E012B2BD818
:10239000012F07D14FF08043D3F81C3403F003031F
:1023A000012B21D003F014FF0546F8B9284B1B7808
:1023B000E3B14FF080430222C3F808230646DFF85A
:1023C00094804FF08044D4F81824D4F81834D20301
:1023D00015D503F00303012B01D0012F0FD155B305
:1023E00086F31188BFF36F8FBDE8F081EFF311869C
:1023F000202383F31288BFF36F8F0125DFE7ADB190
:10240000304603F021FBD4F81835002BDBD1D4F88B
:102410000421002AD7D0C4F80431D4F804310123B0
:10242000C4F81835C8F88031A360CCE7002121201A
:1024300002F07AFBE7E74FF080430222C3F804235F
:10244000D2E700BFBC070020AC070020DC0700205B
:10245000A808002000E100E008B5074803F06DFE81
:1024600038B10648FFF720FE0448FEF787FA00203F
:1024700008BD6FF01200FBE74C65000081240000EE
:102480000A2838B5074D044604D1AB680D215B68B6
:1024900028469847AB6803485B68E1B298472046F6
:1024A00038BD00BF4C650000F0B54068057B01F009
:1024B0001F0444EA4514056987B0002D64D0B2F5C5
:1024C000001F00F1100506D12146284603F0C6FD85
:1024D000002007B0F0BD01AE0027B2F5800F0197D4
:1024E000776039D1B3F1007F14BF052304238DF841
:1024F00004300023CDE904630393836823FA01F1D8
:1025000011F001011AD1B2F1A07F17D104F01F031D
:10251000620903F5E0732AD0012A3BD11F4A52F821
:102520002330DB070AD40DF1030632462146284644
:1025300001F0FEFA1A4B98421CD0029603AA2146DB
:10254000284601F0B7F9174B984220D101222146C5
:10255000284601F051FBBBE7B3F1C06F05D0B3F1E2
:10256000007F14BF01230223C1E70323BFE74FF01D
:10257000A042D4E73146284601F038FB094B984287
:10258000DBD06FF00B00A4E76FF08500A1E76FF0E0
:1025900015009EE751F82330FFDE00BF0003005016
:1025A0000400AD0B0000AD0B38B545682B69B3B125
:1025B0001035284601F00AFB044680B9014628463A
:1025C00001F0D0FA084B98420BD108492246284620
:1025D00001F0A8FA224605210620FFF731FB002072
:1025E00038BD6FF00400FBE70000AD0BF1250000E3
:1025F000420970B5034602D0012A17D070BD0D4EB6
:10260000326951680029F9D003F01F0301250C68D5
:102610009D400029F2D08A682A4002D04B6830469B
:1026200098472CB1236821461C46F2E7024EE7E7A3
:102630002346F8E738650000246500002DE9F043E3
:10264000466840F20635D006337B87B002EA0505BE
:1026500054BFC2F34010032001F01F07B5F5837F7C
:10266000144647EA43178DF8030045D00FD8062DCE
:1026700018D007D8B5B1022D40D06FF0150007B0C3
:10268000BDE8F083B5F5807FF7D101250AE040F27F
:102690000222954234D0B5F5407F33D0B5F5007FA6
:1026A000EBD102250123220303FA01F12CD5736833
:1026B000C3F80815326982BB07F01F037F0929D0D0
:1026C000012F77D13E4A02EB830284F48033D2F8A3
:1026D0000017C3F30043C4F3404444EA430421F425
:1026E000E16144EA800421F0070144EA05230B4339
:1026F000C2F800370020C2E70725D3E70425D1E759
:102700000525CFE70325CDE7630344BF7368C3F80E
:102710000C15CFE74FF0A042D5E710360DF10202BD
:102720003946304601F004FA14F4403F80460CD19B
:102730003946304603F090FC224B9845DAD19DF89B
:102740000210304601F04CFAD4E701AB4FF000091B
:1027500003AA39463046CDE90439CDE90199CDF8CF
:102760000C9001F0A7F8174B984286D114F400336F
:1027700015D09DF803308DF80E3084F48034C4F306
:1027800000444B4603AA394630468DF80C508DF86C
:102790000D4001F049F90B4B9842CDD06DE7CDE9E2
:1027A000043303AA0DF1030339463046039301F0C5
:1027B00081F8F0E703F5E07352F82330FFDE00BF45
:1027C000000300500000AD0B2DE9F043466833686C
:1027D00085B0054693B902680392324A32490093A4
:1027E000CDE901321846012203F05EFA6FF01204BF
:1027F0003368F3B9204605B0BDE8F0830024F7E75D
:102800002A4B029300230390CDE90033264901228D
:10281000184603F049FAEDE72A680392244A224950
:102820000090CDE90102012203F03EFA6FF012049C
:10283000E0E7002CFAD1A0460127746854F838006C
:1028400004EBC80903F079FC03460028E4D054F8EF
:10285000380099F80410B9F80630D0F810C0D0F854
:102860000890DCF80040DA0754BF43F4B01383F457
:10287000D01323F4801207FA01FEDB074CBF44EAB1
:102880000E0424EA0E04CCF80040D9F80030984732
:1028900004460028B4D1336808F101084345CCD878
:1028A000A8E700BFFC7000002C6700002771000043
:1028B00046710000F0B545682B6885B02BBB0268F7
:1028C0000392134A13490093CDE9013218460122BD
:1028D00003F046FA6FF0120005B0F0BD6F682601F4
:1028E000B85903F02AFC034648B9BA590949126895
:1028F0000392094A0090CDE901020122E8E7013480
:102900002B689C42EADB0020E6E70024F8E700BFE2
:10291000FC7000003467000069710000036803F078
:102920001F025B09026004D0012B034818BF00207E
:1029300070474FF0A0407047000300502DE9F04F62
:10294000DFF86091DFF860A185B01546834600EBA3
:10295000810140F2FF18594503D1002005B0BDE8C0
:10296000F08FDBF800305804C3F3C322C3F308042C
:1029700000F191801B0E19F80270444508BF4FF01A
:10298000FF34192B00F28A80DFE803F00D141A1DC2
:1029900020261D8888888836638888888888888863
:1029A0008888667C7F82C5F80C45621C5ED10BF17D
:1029B000040BD0E7C5F81445631CF8D000265FE08F
:1029C000C5F80845F1E7C5F81045F5E7661CC5F8F8
:1029D0000845ECD0002604E0601CC5F80C45E6D0A4
:1029E000012603A80394FFF799FF039B012202FA33
:1029F00003F3C0F80C3508E0C5F80845002FDBD11B
:102A0000631CD4D0002632460627DBF80030019341
:102A100003F40040002818BF002203A8009218BF4A
:102A200001260394FFF77AFF039C019B009A00EBB9
:102A30008400C3F3412CD0F800473B0243EA8C03E7
:102A4000134304EA0A04234343EA4603C0F8003769
:102A5000ADE7C5F80C45D1E7C5F86045621CDBF869
:102A60000030A4D0C3F30043002BB9D003A80394D3
:102A7000FFF754FF039B012606FA03F3C0F808355D
:102A80003246C2E7C5F86445E8E7C5F86845E5E7BA
:102A9000C5F86C45E2E76FF015005FE76FF0850061
:102AA0005CE700BF92710000F0F8FCFF036803F0E0
:102AB0001F025B09026004D0012B034818BF0020ED
:102AC00070474FF0A0407047000300502DE9F041DF
:102AD00086B00329BDF830E04568046916460EF05B
:102AE000010E0BD9524B039102930023CDE9003321
:102AF00050490122184603F05DF91DE0AA7F012A22
:102B000008BF5B084FF0010208BF760802FA01FC1B
:102B1000002B64D09E4265D92768BE4220D0277919
:102B200037EA0C070DD0444B02930023CDE9003364
:102B30004049184603F03EF96FF0150006B0BDE8B5
:102B4000F0813246B2F5004F41D2266067712E689F
:102B500095F81E80C6F80C75C6F80485C6F80825D9
:102B6000627923FA02F292B2012740688EF00106E0
:102B7000806A42EAC63220F811205FFA8CF6002FF4
:102B80003ED12A6801F5AC7152F82120002A0FDBF2
:102B9000BEF1000F47D0B3FA83F35B0933BB05A83E
:102BA0000592FFF783FF059A01239340C0F80C3587
:102BB000217921EA0601217131B3A3795BBB10238E
:102BC000012205F12801284601F016FA21E001371B
:102BD000082F4FEA5202B5D1184B039684E71F46DF
:102BE0001A46C2E7002747F6FF72BEE705A805921E
:102BF000FFF75CFF059A01239340C0F80835D7E73B
:102C0000237933432371D8E7284601F033FA0123AF
:102C1000A371002092E70023A371284603F07FFAF6
:102C20000028FAD0CBE7003B18BF0123B6E700BF6E
:102C30009A7100006C670000AF710000C471000061
:102C400070B5044686B0002201211C20FEF7F8FF73
:102C500060682369294A00F1080101F0A7F9284BAF
:102C600098420FD023680393264B02930023184603
:102C7000CDE900332449012203F09CF86FF00F00E6
:102C800006B070BD6568AE6B05AA0021304603F042
:102C900077F8002805DB059B326819791868FFF77B
:102CA0004DFE002631462B6801F5AC7253F82230F8
:102CB000002B0EDB05A80593FFF7F8FE059AD0F868
:102CC0000435D34013F001031CBF01238B40334371
:102CD000DEB201310429E6D1002301206268916A45
:102CE00000FA03F232420CBF01220022D20321F883
:102CF00013200133042BF1D10020C1E7A75D0000B0
:102D00000000AD0BEE7100006C6700007FB50BABEF
:102D100005930393054B02930023CDE90033012271
:102D20001846FEF75FF807B05DF804FB2472000058
:102D30002DE9F041044647680D4603F049FA4FF08B
:102D4000200888B9264B1B7873B16426606803F0AD
:102D50005BF8F0B9012003F099F8013EF6D10021AB
:102D6000212001F0E1FEF0E7EFF31186314688F310
:102D70001288BFF36F8F606803F046F8A8B986F336
:102D80001188BFF36F8FEFE786F31188BFF36F8F62
:102D9000E5E7EFF31186314688F31288BFF36F8FB2
:102DA000606803F031F80028EED0FB691D7063689D
:102DB000FA691B680020C3F844250122C3F848259E
:102DC000C3F82001D3F82041C3F85801D3F85801C3
:102DD0009A6081F31188BFF36F8FBDE8F08100BF67
:102DE000A8080020F0B500220546012187B0022086
:102DF000FEF726FF0220FEF707FF6B6818681A69C6
:102E0000C0F82425997D5A7D0A43198B1B7D0B43FD
:102E10001343C0F86C356E68D6E9004313F0010324
:102E200055D02F6907F1080003F03CF8354B984264
:102E30000DD0354B029300231846CDE900333349BA
:102E40000122FFF763FF6FF0040007B0F0BD387A8E
:102E500004F10C0204F5907103F01AF8387A012796
:102E600007FA00F000F060FB0823C4F80035F369AE
:102E7000C4F844350023C4F84835A760D4F8583165
:102E8000002BFBD00021C4F800156B68DC6805AA94
:102E9000204602F075FF002805DB059B22681979A2
:102EA0001868FFF74BFD6A6813680821C3F800151E
:102EB000117A51B9126AC3F834250122C3F83825B2
:102EC000C3F81011D3F810111A600020BDE70822D2
:102ED000C4F80025F269C4F84425C4F84835012334
:102EE000A360D4F82031002BFBD00023C4F820319C
:102EF000D4F820310123E3604FF48073C4F8043325
:102F0000BCE700BF0000AD0B247200007C6700002E
:102F100070B5012383400E4ABFF35B8FDC4352E858
:102F2000001F01EA040542E80056002EF7D1BFF366
:102F30005B8F4FF4803282400648C0F80823BFF30D
:102F40005F8FBFF36F8F0B4214BF0120002070BD55
:102F5000440800200010014070B40E49D1E900344B
:102F6000D01AC31844F1000422F07F46C1E90034AE
:102F7000A6F50013B3F5400F09D2074B1B681A0AD8
:102F80001B069C19054B42F10005C3E9004570BCC6
:102F900001F04EBF88050020480800209005002061
:102FA00011B3BFF35B8F0123104A834052E800CF77
:102FB0004CEA030C42E800C10029F7D1BFF35B8F54
:102FC0000B4A4FF480338340C2F80433094BBFF3FC
:102FD0005B8F1B68BFF35B8FC340DB0742BF064BB1
:102FE0004FF40032C3F80021704700BF44080020AE
:102FF000001001404008002000E100E00D4B18687F
:10300000010A0006BFF35F8F0B4BD3F80435181885
:1030100041F10001B3F5801F0AD2084BD3E9002328
:10302000904271EB030303D210F1807041F1000173
:10303000704700BF480800200010014090050020A4
:103040002DE9F04F85B016461F469DF840A0044676
:10305000FFF75EFF0190FFF7D1FFB04271EB07036E
:1030600054D23E4B301A67EB0101984271F10001D6
:103070004FD23B4B03EB0413D3E902239F4208BF1B
:1030800096425ED037494FF4803804F1500508FA73
:1030900004F8AD00C1F848832046ADB202F0E5FE69
:1030A00026F07F4B05F1804504F5A87305F58835BA
:1030B000DC464FF003090293029A2CF07F4341F85B
:1030C0002230C1F84483D1F80435274A6FF002005A
:1030D000C01A604420F07F40904232D9286868B11D
:1030E000D1F804350393A3EB0B0020F07F40B0F53B
:1030F000000F26D9204602F0B8FE039BBAF1000F5C
:1031000007D109EB030C09F10109D5E7BAF1000F6A
:1031100009D06FF0150520460199FFF741FF2846B9
:1031200005B0BDE8F08F0123104ABFF35B8FA340C9
:1031300052E8000F184342E800010029F8D1BFF31C
:103140005B8F07490E98230101EB0412C8500F9BB7
:103150005360C2E902670025DDE700BF010080007F
:103160007805002000100140FDFF7F00400800208E
:103170007FB51C4C1C4BC4F80833C4F848331B4BB8
:1031800000254FF0FF304FF0FF31C4F80855C3E978
:1031900002014FF48033C4F80433154B02264FF478
:1031A00000320121C4F804631120C3F880212A46AB
:1031B000FEF746FD1120FEF727FD0E4A0123A3600E
:1031C000236013600C4B0D4A0093CDE90155002399
:1031D0002846FFF735FF3046FFF7C0F8284604B011
:1031E00070BD00BF0010014003000F0078050020F3
:1031F00000E100E044080020592F0000FFFF7F009D
:103200002DE9F7432F4CD4F8043399070BD5D4F8A4
:10321000043143B12C4A0023C4F80431D4F80431FA
:10322000136801331360D4F80433DA0329D5BFF3EC
:103230005B8F264B53E8002F22F0010143E800107A
:103240000028F7D1BFF35B8FD30702D4D4F8403105
:10325000BBB10025C4F84051D4F84031FFF7CEFE91
:10326000EFF31182202383F31288BFF36F8F184B83
:10327000D3E90267B042B94106D282F31188BFF3A5
:103280006F8F03B0BDE8F0834FF0FF384FF0FF3988
:10329000C3E90289D3E900101D604FF48033C4F8FC
:1032A0004833C4F84051D4F8403182F31188BFF359
:1032B0006F8F0029E5D0009032463B46284688476C
:1032C000DFE700BF00100140480800204008002050
:1032D0007805002030B5431C124C85B005D08442DF
:1032E000A8BF0446012CB8BF0124FFF787FE0E4B90
:1032F0000C4DD3E90013401AB0F5000F10D222187C
:10330000AA4228BF2A4652184FF0000007490091F0
:10331000CDE9010043F10003FFF792FE05B030BD97
:103320002A46F0E7FFFF7F0088050020592F0000A4
:1033300008B5FFF763FE024B1B68C01A08BD00BF4B
:1033400088050020024AD2F80034002BFBD07047D9
:1033500000E0014010B54FF08053D3F830210D2A22
:1033600055D14FF080410022C1F80C21C1F8102145
:10337000C1F83825464AD3F80404C2F82005D3F82A
:103380000804C2F82405D3F80C04C2F82805D3F8C1
:103390001004C2F82C05D3F81404C2F83005D3F891
:1033A0001804C2F83405D3F81C04C2F84005D3F859
:1033B0002004C2F84405D3F82404C2F84805D3F821
:1033C0002804C2F84C05D3F82C04C2F85005D3F8F1
:1033D0003004C2F85405D3F83404C2F86005D3F8B9
:1033E0003804C2F86405D3F83C04C2F86805D3F881
:1033F0004004C2F86C05D3F84434C2F87035D1F8F3
:103400000034DB0709D56FF00103C1F800344FF039
:103410008053D3F830310D2B0CD14FF08053D3F8BB
:1034200034313BB14FF01023D3F808224FF08043E2
:10343000C3F858254FF01023D3F80022002A03DBED
:10344000D3F80432002B22DA124901234FF0102066
:10345000C1F804351224FFF775FFC0F80042FFF7EA
:1034600071FFC0F80442FFF76DFF0023C1F8043577
:10347000FFF768FFBFF34F8F0749084BCA6802F494
:10348000E0621343CB60BFF34F8F00BFFDE710BD79
:1034900000C0004000E0014000ED00E00400FA053B
:1034A00030B50468CCB1BFF35B8FB4FA84F3C3F1D9
:1034B0001F03DBB201229A4024EA020250E8005FB7
:1034C000A54204D140E8002CBCF1000FF6D1BFF3B7
:1034D0005B8FE6D102480B7030BD0248FCE700BFAD
:1034E0000000AD0B0200AD0B10B50368CB40DB074D
:1034F00014D401238B400268BFF35B8F43EA0201BF
:1035000050E8004F944204D140E8001CBCF1000F89
:10351000F6D1BFF35B8FEED1014810BD0148FCE747
:103520000000AD0B0400AD0B014BC3F80405704760
:1035300000F00140044B1A7922B9012218601A7177
:1035400002487047024870474C0800200000AD0B4D
:103550000C00AD0B08B5074B1B682BB10020FEF724
:1035600061FB08B9FEF750FB4FF080430022C3F81F
:10357000182508BD4C08002010B510B1012843D013
:1035800010BD4FF08043D3F81814D3F81824C803A3
:1035900021D502F00303012B04D013B1002002F067
:1035A00083FC00234FF080420220C2F81835082225
:1035B0004FF4827303F180430021196002F18042CD
:1035C0001C6801241460154A12680AB34FF0804346
:1035D000C3F80403D4E7D3F81424D107E1D5D3F812
:1035E0001C249207DAD40D4A12681AB10222C3F8D9
:1035F0000423C5E7D3F80421002AFBD00022C3F836
:103600000421D3F80431BBE700224FF48073D1E7E3
:103610001A68002AFCD019601B68B1E74C0800202A
:1036200010B54FF08043D3F8002152B10020C3F809
:103630000001D3F800210122C3F80823104B1B68B6
:1036400098474FF08043D3F8042172B10022C3F8A9
:103650000421D3F80421D3F81824D3F818249207AE
:1036600004D10122C3F818259A6010BD0222C3F8C4
:103670000823034BBDE810401B680120184700BF1A
:103680004C080020036803F01F025B09026004D0AD
:10369000012B034818BF002070474FF0A04070472F
:1036A00000030050034A430900F01F00D35C184494
:1036B000C0B270476172000070B50546FFF7F2FFB7
:1036C0000C4C08300E4634F81030DA0508D5C3F338
:1036D000432304EBC302284654F83330526898471A
:1036E000A3682BB1E26831462846BDE87040184710
:1036F00070BD00BFE004002008B5FFF7D3FF034B07
:10370000083033F81000400B08BD00BFE004002073
:1037100008B5FFF7C7FF034B083033F81000C0F3BC
:10372000400008BDE004002008B5FFF7BBFF034BD5
:10373000083033F81000C0F3401008BDE00400204A
:10374000034611F0010010B5CCB20DD1A207C4F3AD
:10375000400012D5094AD2F820055860C2F8200569
:10376000003818BF012008E04FF0A041D1F8202513
:103770001A60C1F82025002AE8D010BD00030050CF
:1037800010B5FFF78FFF124A083032F81030D90514
:103790001CD5C3F3432123F4F85322F8103002F16F
:1037A0000E04002034F8023F13F4807F03D0C3F3EB
:1037B000432399420AD001302A28F3D1002342F84A
:1037C00031300448BDE81040FFF78EBE10BD00BF89
:1037D000E00400204C050020F0B50546002004461A
:1037E000012607468C420BD1114BD3F87C2132B114
:1037F0000022C3F87C21D3F87C3140F00040F0BDBA
:10380000E3B29B0003F580729B0806FA03F31D42A6
:103810000BD002F1804202F5C042D2F800C0BCF1E8
:10382000000F02D01760126818430134DAE700BFB6
:1038300000600040F7B506460846FFF733FF194F12
:1038400000F108050C4637F81530DB0727D5304660
:1038500002F0DEFB2046FFF767FF40B12046FFF78E
:103860004BFF316800F5A270002341F8203020465C
:10387000FFF786FF002301A827F815300194FFF712
:1038800001FF019B00EB8300074BD0F8002713409A
:1038900043F00203C0F80037044803B0F0BD044809
:1038A000FBE700BFE0040020F0F8FCFF0000AD0BD8
:1038B0000400AD0B2DE9FF41164680460846FFF790
:1038C000F1FE0D463168044609B32846FFF720FF94
:1038D00018B12846FFF728FF10BB0023CDE90033BD
:1038E0008DF80E308DF80F300DF10F020B46284683
:1038F0000DF10E0102F034FB474A04F1080132F8E1
:10390000113023F0020343F0010322F811307368F1
:1039100063B328461F785968FFF7FAFE10B1D1B19A
:103920003E4826E03C4A04F1080032F8103023F00B
:103930002003DB04DB0C22F8103061B1032FEFD839
:103940007168496891F800C0D8F80010A7B90CF563
:10395000A27C41F82C70304A04F1080132F8113091
:1039600023F01C0343EA870322F81130B3684BBBF2
:103970002B4804B0BDE8F08101EB8C0143EA4C33E5
:10398000D1F810E52EF0030EC1F810E5D8F80010BC
:1039900001EB8C0E43F02003DEF8101522F81030F6
:1039A00021F44F3121F44071CEF810152902DEF8D0
:1039B000108501F47C5141EA074141EA0801CEF843
:1039C0001015C8E7D3E900672846FFF7D9FE002E97
:1039D000CED0114DD5E90023964203D19F4201D1AB
:1039E000002209E00F480DF10F01FFF759FD0C4BC4
:1039F0009842BED19DF80F2045F8326005EBC20316
:103A000008345F6035F8143043EA422343F480738E
:103A100025F81430ACE700BFE00400200400AD0B33
:103A20000000AD0B4C0500202DE9F0430C4685B09D
:103A30008046204611461E46FFF734FE054629B350
:103A40002046FFF765FE18B92046FFF76DFE18BB4C
:103A5000314F05F1080937F8193013F01C0F02D067
:103A60004B78012B18D001238DF80F300023CDE9BE
:103A700000134A1C8B1C20460DF10F0102F070FA56
:103A800037F8193043F0030327F81930002E41D0DE
:103A90002046FFF73DFE18B9204805B0BDE8F08389
:103AA00096F800C0D8F800301B4F0CF5A272002128
:103AB00043F8221005F1080237F8121021F0200116
:103AC000C904C90C27F8121075781DB3D8F8000086
:103AD000B67800EB8C002D04D0F8103523F4991340
:103AE00023F4F853C0F81035230203F47C5305F493
:103AF00040353605D0F810E52B4306F4801641EA30
:103B00004C31334341F0200143EA0E0327F81210F1
:103B1000C0F810350248C0E7E00400200400AD0BF7
:103B20000000AD0B014BC3E902127047E004002016
:103B300010B508461446FFF7F7FD50B10846FFF7E9
:103B4000B1FD054B083033F8103004485B0B23708F
:103B500010BD0348FCE700BFE00400200000AD0BEF
:103B60000400AD0B70B5164D95F8744006462CBB9D
:103B70002146542205F1100002F020FC30686E6EE0
:103B800021468E420ED10023C0F87C31D0F87C3122
:103B900040F30730FEF738F801230A4885F87430FF
:103BA000EB6670BDCBB29B0003F580727C2B08BF27
:103BB000845001F1010108BF8358E2E70248F0E7B1
:103BC000E00400200000AD0B0C00AD0B034B93F89C
:103BD0007400003818BF0120704700BFE0040020C7
:103BE0000148FFF781BC00BF480500200148FFF7EE
:103BF00057BC00BF4805002073B503681646D3F8CC
:103C00000423002AA8BF4FF000420546A8BFC3F80E
:103C1000042308460C46FFF787FD00B30846FFF76C
:103C200077FD0146D8B92046FFF766FD04B2A4002F
:103C300004F580720346286881502968825821441F
:103C4000D1F8102542F00102C1F810252EB12968E3
:103C5000012202FA03F3C1F8043302B070BD20461A
:103C6000FFF720FD0F4B083033F81030C3F3820309
:103C7000042B12D0052B12D001A80194FFF702FDEE
:103C8000019AD0F81035D34003F00103991C204667
:103C900002B0BDE8704002F0ACB90321F7E70221A1
:103CA000F5E700BFE00400202DE9F04F694BDFF895
:103CB000A881D3F80403D8F86410C0B289B040F0EA
:103CC0000040FFF789FD051E2FDAC24600235AF88F
:103CD000701F06A8CDE90633FFF732FD5F4B019355
:103CE0000DF118094FF0000B019A12F8013B0192F7
:103CF000DA0803F007031AF8022022FA03F3DA07BE
:103D00001CD409F10409BBF1000F14D0D8F86410D9
:103D10004FF00040FFF760FDD8F8701006A8FFF7DD
:103D20000FFD0028DAD125F000450124002D79D1BE
:103D300009B0BDE8F08F4FF0010BD5E7484B5B446D
:103D40000293D9F800100029DBD0029B91FAA1F16F
:103D50001C78B1FA81F141EA44142046FFF7A2FC35
:103D60000830059438F81070C808BB0819F800200E
:103D7000039301F00701012303FA01F122EA010292
:103D800009F8002005A8FFF77DFC059A039B02F5C2
:103D9000E072C7F3820650F822205B073746C2F371
:103DA000014224D520463946D6B2FFF785FC05A846
:103DB0000594FFF767FC059B03F5E07350F823308B
:103DC000C3F301439E4207D10021204602F011F9BE
:103DD0003146204602F00DF905A80594FFF752FC84
:103DE000059B012202FA03F3C0F82035A9E7022A55
:103DF0000CD10321204602F0FCF806F00503012B4C
:103E0000EAD139462046FFF757FCE5E70221204674
:103E1000039202F0EEF8032EF3D0039A032ADBD1CB
:103E2000022EEDE795FAA5F3B3FA83F304FA03F251
:103E30009B0003F1804303F5C04325EA0205D3F854
:103E40001005D3F81015C0F30520C1F30141FFF7A9
:103E500033FC6BE700600040E0040020717200005A
:103E60007172000001460148FFF71ABB5805002097
:103E7000036803F01F025B09026004D0012B0348B2
:103E800018BF002070474FF0A0407047000300505B
:103E900070B505790A4C14236B43E618E35833B91F
:103EA0000068022102F011F908B1012333721423D2
:103EB00003FB0544207A023818BF012070BD00BF03
:103EC000540800202DE9F3470B7F04466BBBDFF855
:103ED000D8900D1F01F1100601F10C08012755F8CB
:103EE00004AFBAF1FF3F1CD03378CDF804A001A88D
:103EF000002B50D0FFF7BCFF019B07FA03F3C0F87B
:103F0000083501A8CDF804A0FFF7B2FF019B00EB34
:103F10008300D0F8003703EA090343F00303C0F835
:103F20000037A84506F10106D9D191F81DC00D8BC7
:103F30004F7D8E7D8A7EC87E2368BCF1000F0BD139
:103F4000D1E9008ED1E902C1C3F86085C3F864E508
:103F5000C3F868C5C3F86C1542EA0022C3F80C75B3
:103F6000C3F80465C3F80855C3F81025206800237A
:103F7000C0F81031D0F81021C0F80831D0F808216D
:103F8000C0F80C31D0F80C3140F3073002B0BDE876
:103F9000F047FDF739BEFFF76BFF019B07FA03F30C
:103FA000C0F80C35ADE700BFF0F8FCFF2DE9F0419B
:103FB00090F804800D4C142606FB08F6A71997F814
:103FC00008C0BCF1000F0ED1A2517B6019B10B7F6C
:103FD0003B74FFF777FF142303FB084404480123D5
:103FE0002372BDE8F0810348FBE700BF54080020BE
:103FF0000000AD0B0C00AD0B70B40C4601792668C7
:1040000015461A461A4B01EB810103EB8101036847
:10401000C3F82065A688C3F82465A668C3F8286598
:10402000E668C3F82C6503682668C3F84065A6886F
:10403000C3F84465A668C3F84865E468C3F84C450E
:10404000046805F0010303EB5505C4F81455D407C3
:104050000CD412F0020403D0002B14BF0824042453
:104060000568C5F8004270BC01F0FABF1024F7E7FC
:104070005408002038B5036805790022C3F80022EF
:104080000368012204465A6071B12046FFF700FF21
:104090000028FAD023680022C3F80025054B14221B
:1040A00002FB053301221A722046BDE83840FFF7B3
:1040B000EFBE00BF5408002010B5B2211A4802F02C
:1040C00004F8C106044608D5184BDA68520704D52F
:1040D0001A6812B1596801209047A00608D5134B01
:1040E000DA68110704D51A6812B15968022090479E
:1040F000220608D50D4BD86810F0100003D11A68BD
:104100000AB159689047A3070DD5074B0022C3F8A1
:104110000025064B01221A721A6822B1BDE8104030
:1041200059680320104710BD00C00140540800200A
:1041300008B5124BA8220021184602F03FF90322CD
:1041400002610F4942610F4A8161C2614FF480628E
:104150000262002282624262C26201660A494166CC
:1041600010218166094902670346C266426711F859
:10417000010D98540132102AF9D108BD1004002015
:104180007372000010000020000000208C720000FC
:104190002DE9F84FDFF87C80182606FB008E00FB27
:1041A00006664644DEF82440DEF828C07368A4455D
:1041B00007468946154603EB040022D8DEF820B0F6
:1041C000ABEB040A0AF1FF339A4203D802F0E8F895
:1041D0002C440FE063449A4219D852462C4402F012
:1041E000DFF8B4EB0B0405D07068224609EB0A0136
:1041F00002F0D6F8182303FB078301205C62BDE8B8
:10420000F88F0CF1FF3CACEB040C9445DED200209F
:10421000F5E700BF10040020034B182202FB003317
:104220009A6A586A801A7047100400201FB5044625
:10423000FCF764FD064B029300231846CDE90033DA
:104240000449012201F084FF204601F091FF00BFE4
:104250008D720000646700002DE9F041054686B0CC
:104260000E46EFF31188202383F31288BFF36F8F7C
:10427000042898BF234B244A98BF53F820309768EE
:1042800088BF224B127C224903900024CDE90432DE
:10429000204B0293CDE9004423460122204601F041
:1042A00057FF6EB1F369C3F308034BB11A4B1849BA
:1042B0000094CDE9014301222346204601F048FF46
:1042C0002FB1384601F08AFF08B1037803B91348CB
:1042D000134B02930023CDE90370CDE90033184658
:1042E00001220B4901F034FF31462846FFF79EFFBB
:1042F00088F31188BFF36F8F384606B0BDE8F041F0
:10430000FDF706BC3C6A0000680800209C720000B3
:1043100064670000B2720000DA720000AA72000046
:10432000FB72000038B5094B53F82040013053F8B8
:104330002050A54200D838BD636823B1204601F063
:104340001FFF0834F5E723689847FAE7506A000032
:1043500070B52B4B2B4C2C4D012286B003201A70CC
:10436000FFF7E0FFFCF7CEFF01F026FF0420FFF788
:10437000D9FF2646AE4204F1300410D300F016FBFC
:10438000204C224EAC4226D300F024FBFCF77AF8F6
:104390001F4A137B23F00103137306B070BD54F85A
:1043A0000C3C059354F8103C049354F8143C0393CC
:1043B00054F8183C029354F81C3C019354F8203CE8
:1043C000009354E90A2354E90C0100F021F954F850
:1043D000303C5E65CDE7D4E90A23B3F1FF3F08BF67
:1043E000B2F1FF3F05D052EA0301206803D101F08A
:1043F000F7FE3034C6E73146183000F09FFCF8E78E
:10440000A80800201C6700001C670000ED62000087
:104410001806002008B50348034A0021121A01F0CB
:10442000C7FE08BD78050020AC08002070B5002349
:1044300086B00122CDE90423134E144D01930F22BF
:10444000CDE902321249142303FB005506EBC016D6
:1044500004464FF4C07000FB04110E4B00954FF45E
:10446000A072304600F0D4F8737B0B4AEE6023F064
:10447000040373734FF4046304FB033313442C7479
:104480006B6006B070BD00BF980500206808002072
:1044900000110020BB610000C0080020BFB5002053
:1044A000FFF740FF2D4B83F308882D4D2D4E6B6990
:1044B0002D4F43F400736B610024E02385F8223014
:1044C000EC772C766C76AC7685F820406B6A43F4FA
:1044D000E0236B6285F82340FDF796FAFDF738FC80
:1044E0004FF0FF33AB62EB62FDF718FDFDF754FCB4
:1044F000FCF7F0FB1D4BB36040F201129A81C3E957
:104500001844DC6601F018FE0120FFF70BFF0220C3
:10451000174DFFF707FF00F07DFA164B7561059305
:10452000012315490094CDE903434FF480623B46D3
:10453000CDE90144284600F06BF86A7B064622F07C
:10454000040228466A7301F087FE2046FFF76EFFDB
:104550003A4631462846FDF7D9FB00BF001100203E
:1045600000ED00E06808002051430000980600209C
:1045700018060020146B00008012002038B5044695
:10458000EFF31185202383F31288BFF36F8F01F0BF
:10459000B1FE48B10022826701F05EFE294608485C
:1045A000BDE8384000F0BEB9D4E902329A4218BFE3
:1045B0000133A36085F31188BFF36F8F38BD00BF4F
:1045C000A908002013B5EFF31181202484F3128889
:1045D000BFF36F8F846844B1013C846081F311881C
:1045E000BFF36F8F002002B010BD52EA030406D162
:1045F00081F31188BFF36F8F6FF00F00F3E7CDE900
:1046000000230246014800F061F9ECE7A908002008
:104610002DE9F043073285B022F007020E461F460F
:104620001099017300F158037F32C0E91633044634
:10463000002322F03F020421836041733F2A0F9838
:10464000A073C4E90633E37306F14009A2F1400800
:1046500005D883F31188BFF36F8F084602DFB518C2
:1046600029462046FCF7C2FE07300E9B20F00700CB
:10467000A066C4E9189802930D9B01932D1A0C9B18
:1046800000932A463B4631462046FDF70DFB0023AA
:104690006365044B9B6803B1DB6EE366284605B097
:1046A000BDE8F0836808002038B50D4D2B4653F85F
:1046B000184F9C4200D004B9EC68AB6838B95A7BFB
:1046C000D20604D1A26912B9DA897F2A05D89C42A0
:1046D00002D0204600F07AFA23466B6138BD00BF55
:1046E0006808002008B590F90D20437B002A014698
:1046F00004DA03F07F03437301F074FD044B986800
:10470000431A58425841BDE80840FFF7CDBF00BFEB
:104710006808002070B490F90D30427B002B29DB33
:10472000D30627D183692BBB134962F07F02427302
:104730000A4652F8184F944218BF2346CC6923B951
:10474000C0E900242060C8610CE090F90E5093F994
:104750000E60B5420AD0AE4208DD5A68C0E90032A8
:104760001060586070BC0020FFF79EBF9C42E7D0ED
:104770001B68E4E770BC7047680800202DE9F04131
:10478000002A427B0E460CBF10210821114204462C
:104790000FD141EA0203D20918D1437308291BD073
:1047A0000120FFF781FFBFF35F8F637B23F060037E
:1047B0006373274B9B68A34243D1EFF30583002B20
:1047C0003FD13046BDE8F041FDF7B8B903F07F03B3
:1047D000437301F007FDE1E7A36813B1204601F040
:1047E00009FD04F1180001F0C2FDA56D04F15807A0
:1047F000AF4211D04FF0000875B1284601F0FAFC25
:1048000005F1180001F0B3FDC5F878802846FFF7E0
:1048100081FFA56DAF42EFD10D4DAB689C42BFD17A
:10482000EFF30583002BBBD00120FFF73DFF094BC1
:10483000AB6040F201129A810022C3E91822DA66C5
:10484000B1E786F31188BFF36F8FBDE8F08100BF39
:10485000680800209806002070B590F90D20437B71
:10486000002A014604DA03F07F03437301F0BAFC27
:104870004B7B154A63F07F0310464B7350F8183F8B
:10488000D469834208BF002323B9C1E90004216031
:10489000D1610CE091F90E5093F90E60B5420ED043
:1048A000AE420CDD5868C1E9003001605960906883
:1048B000431A5842BDE870405841FFF7F5BE9C428C
:1048C000E3D01B68E0E700BF68080020F8B5124B92
:1048D0000C461146114A98681060DDE90676EFF340
:1048E0001182202282F31288BFF36F8F9D682846C1
:1048F00001F08AFCB6F1FF3F08BFB7F1FF3F06D0D9
:1049000007493A46334605F1180000F017FA2046E9
:10491000BDE8F840FDF712B96808002088080020BB
:10492000ED62000049B9EFF3058030B9054B5A69D3
:104930009B689A4201D0FDF701B981F31188BFF35A
:104940006F8F70476808002010B5EFF311842022A4
:1049500082F31288BFF36F8F427B510704D484F334
:104960001188BFF36F8F10BD22F004024273FFF76E
:10497000D1FE21460248BDE81040FFF7D3BF00BF7B
:10498000A9080020034648B9EFF3058232B9064A68
:1049900051699268914201D0FDF7D0B883F3118834
:1049A000BFF36F8F704700BF68080020EFF31181DD
:1049B000202383F31288BFF36F8F054B9A68D37B54
:1049C000013BD37381F31188BFF36F8F704700BF32
:1049D0006808002038B5EFF31185202484F312888D
:1049E000BFF36F8F0A4B9A68D37B0133D3730020D8
:1049F000FFF75AFE85F31188BFF36F8FEFF3118035
:104A000084F31288BFF36F8FBDE83840FFF7BABF59
:104A100068080020024B03F11802C3E90622704720
:104A200068080020F8B5EFF31185202383F312887E
:104A3000BFF36F8F19498868437B03F07F0343738B
:104A400001F0D0FB8B685A7B084662F07F025A73F4
:104A500050F8182FCC69824208BF002222B9C3E95E
:104A600000042360CB610CE093F90E6092F90E70A4
:104A7000BE420ED0B7420CDD5168C3E900210B6085
:104A800053600120FFF710FE2846BDE8F840FDF70F
:104A900055B8A242E3D01268E0E700BF68080020E2
:104AA00050EA01032DE9F04105460E4603D1FFF718
:104AB000B9FF00202BE0831C71F1FF3329DB01F0EB
:104AC0006BFC2C18EFF31188202383F31288BFF3BB
:104AD0006F8F124F124BB8681860FFF703FEB8686B
:104AE00010492A463346183000F028F9BA68537B3B
:104AF00043F0100353734046FDF720F801F04CFCDF
:104B0000201A63EB0303012873F10003D1DBBDE836
:104B1000F0816FF00104241AD4E700BF6808002078
:104B200088080020ED620000B1F1FF3F08BFB0F13E
:104B3000FF3F08B506D10A4B986801F09CFB4FF087
:104B4000FF3008BDFFF7ACFF4FF47A7147F6FF73F3
:104B50000022C0FB0132D80B40EA4240F1E700BF1F
:104B600068080020014B9868704700BF6808002063
:104B7000044BC01A044BC0105843044B01221A5472
:104B8000704700BF18070020ABAAAAAAA9080020F6
:104B9000C3897F2B12D80A4B1B6863B1094B90F96C
:104BA0000E201B689A4209DB437BDB0606D1064BCD
:104BB000C31A18BF012303F0010070470023FAE76E
:104BC000900800208C0800209805002070B50E4B3E
:104BD0000E4C1E7C06EB460304EBC3040546204640
:104BE00001F0C5FB0A4B002228469A55FFF7D0FF7B
:104BF00048B1084B08491A68013A2046D317BDE866
:104C0000704000F09BB870BD6808002018070020B5
:104C1000A908002090080020714B000038B5EFF380
:104C20001185202383F31288BFF36F8F104B114A35
:104C30009C681068A04206D1FFF7C8FF85F3118871
:104C4000BFF36F8F38BD00211B7C11600A4AD35C13
:104C5000002BF3D02046FFF79BFF0028EED0637BAC
:104C6000DB0602D12046FFF7F7FD2046E4E700BF50
:104C70006808002088080020A908002008B5064818
:104C8000064A0749121A01F095FABDE80840054A9C
:104C90000549064801F08EBAC004002078050020BE
:104CA000787300000000000070730000C004002052
:104CB000034B1B680BB9FEF73BBB0020704700BFDE
:104CC0009408002030B570B10B4B5B6898420AD055
:104CD000036843B1D3E90421D0E90445121941EB3B
:104CE0000501C3E90421D0E9003213605A600023B2
:104CF000C0E9003330BD00BF5C05002010B50E4B8D
:104D00001C689C4204D1FFF7D3FF6FF0004010BD38
:104D1000FFF7CEFF002CF8D0D4E904321B1A62EB67
:104D2000E072B3F1004F72F10001EEDA002AACBF7D
:104D300018460020EBE700BF5C050020B3F1FF3F01
:104D400008BFB2F1FF3FF8B504461D4616465ED0D7
:104D50008160EFF31187202383F31288BFF36F8FF5
:104D6000013275F1FF3324DA2E49D1E900206FF0CA
:104D700001039B1A4FF0FF3262EB00009E1B60EBB9
:104D80000500012E70F1000301DA01260020C4E9BC
:104D90000460254ED6F800C07568B44508BF4FF0D2
:104DA000000CBCF1000F0DD1C4E900652C607460EB
:104DB0001CE0FFF77DFF013645F10005361845EB95
:104DC000E070E4E7DCE90420D4E90431934271EBBC
:104DD000000E1DDAD21ADCF8043060EB0100CCE9D9
:104DE0000420C4E900C31C60CCF804403368B3421B
:104DF00009D09C4207D10D4B1C6824B9FFF77EFFF8
:104E00002146FEF767FA87F31188BFF36F8FF8BD6D
:104E10009B1A61EB0001AC45C4E90431C4D0DCF855
:104E200000C0BEE7300700205C0500209408002089
:104E30002DE9F84FEFF3118C202383F31288BFF391
:104E40006F8FDFF8B0A0DFF8B0902C4FC9F80000EA
:104E5000DAF800000024504508BF00200025D7E9FB
:104E60000021D9F80030E04678B3D0E9046C4FEA6D
:104E7000E37EB3427EEB0C0B05DAF61A6CEB0E0404
:104E8000C0E9046421E0B21841EBE671C0E90445D1
:104E9000C7E90021FFF716FF88F31188BFF36F8F72
:104EA00083689847EFF31188202383F31288BFF3B8
:104EB0006F8FD9F80030DAF800009B1B5045C446CC
:104EC000C9F80030CBD1D7E900219A1841EBE37340
:104ED0000024C7E90023C9F80040FFF70FFF21466F
:104EE000FEF7F8F988F31188BFF36F8FBDE8F84F2C
:104EF000FFF794BE5C0500209408002030070020D6
:104F000010B5EFF31184202383F31288BFF36F8F62
:104F1000FFF7CEFE054A0346D2E90001181841EB1F
:104F2000E37184F31188BFF36F8F10BD3007002049
:104F30002DE9F04F8DB043680293837815469A07A8
:104F4000804640F10D8100240E78002E00F00A8189
:104F5000252E0BD04B1C03930134029B4146304657
:104F600098470028C0F2F6800399EDE74E788B1C35
:104F7000252E0393F0D00027B946BB46BBF11F0F87
:104F800038D8A6F12003102B0AD8DFE803F02A094D
:104F900009300909092109090928092D09091F00F2
:104FA000A6F13003092B33D92A2E37D11BF0400F3D
:104FB00055F8043B40F08280002BA7BF4BF0200B3C
:104FC0009946C3F100094BF0280B01E04BF0010BAF
:104FD000039B13F8016B0393002ECFD130E04BF00D
:104FE000020B4BF0040BF3E74BF0080BF0E74BF030
:104FF000100BEDE7BBF17F0F19D8A6F13003092B99
:10500000D2D81BF0400F03D00A2101FB0737DFE79E
:105010000A2101FB09394BF0200BD9E72E2E06D1CE
:105020001BF0400F40F09E804BF0400BD0E76C2E01
:1050300031D02BD8682E36D06A2E3CD04C2E3AD0A8
:10504000002F46F02003B8BF2BF04002A3F165010A
:10505000BCBF1FFA82FB0027022901D9612B2FD187
:10506000073525F00705DFF8ACA2083507271BF048
:10507000080F66D00AEB070B56465E4563D1A4EBDA
:105080000A0A06EB0A02A9EB07096FE1742E9FD00A
:105090007A2E9DD0D4E71BF0800F18BF4BF4007B15
:1050A0004BF0800B94E71BF4807F18BF4BF4007B20
:1050B0004BF4807B8CE74BF4207B89E71F4687E726
:1050C000A6F16301122900F2F080DFE811F013006D
:1050D0004F00EE00EE00EE00EE004F00EE00EE009E
:1050E000EE00EE00EE00FE00E900EE00EE001B0018
:1050F000EE00AF0055F8043B8DF8183001270DF194
:10510000180AB4E755F804AB834BBAF1000F08BF97
:105110009A461BF0400F14BF39464FF0FF315046FE
:1051200001F054F90746A2E7029B41462020984728
:1051300000280FDB013EB742F6D34C44A41BB14616
:1051400098E74E46F7E716F8010B029B4146984751
:10515000002892DA98F8023043F0040388F802300D
:105160004FF0FF3420460DB0BDE8F08F1BF0800FEC
:1051700034D01BF4007F2CD0073525F00705AA4654
:1051800069685AF8080B2BF010050029ADB237DA20
:10519000404261EB410145F480650DF1180B0A2393
:1051A0005A4601F01FF9A0EB0B0301936B0662D581
:1051B000019B25F001019F4289B240F3A180002E9E
:1051C00000F0998015F0100240F09C80BB460D461F
:1051D00023E0AA465AF8040BC117D4E7AA461BF4E9
:1051E000807F5AF8041B01D10846F5E71BF4007FC5
:1051F00015BF48B208B241F3C01141F3C031C2E754
:1052000050EA0103C9D11BF0400FC6D0002FC4D112
:105210002BF0110295B2BB46019740F2064115EA08
:1052200001021CBF0BF1010B00222CE02BF010023D
:105230001FFA82FB0A231BF0800C49D01BF400717B
:105240001DBF073525F00705AA46AA461ABF5AF81A
:10525000080B69685AF8040B50EA010545D12BF098
:1052600016051BF0400FADB242D0002F40D12BF0FD
:10527000170295B2019715F0100248D0019B002E3D
:1052800042D103F1010B29075AD4EB0706D5D945C2
:105290006FDD0199A9EB0B035F18CB465B4649E034
:1052A0004BF0100B10237826C5E7782B04D1C6F1FC
:1052B000780343F01003BEE7029B41462520984740
:1052C0000028FFF647AF023447E608230026B2E77E
:1052D000AA461BF480715AF8040BBDD01BF4007170
:1052E0001ABFC0B2614680B2B6E72BF0060295B293
:1052F0000DF1180B54E725F01105ADB2BB468CE754
:105300000D46B8E73B460D4603F1020BBBE7DDF85F
:1053100004B082E76773000060730000CDE90432D7
:105320004146029B202098470028FFF613AF049BBC
:10533000059A01339945F1DCA4EB0B01CC189B468F
:105340000AB3029B4146302098470028FFF602AF7F
:105350008EB901342744019B391B994224DC1D4638
:105360005DBB019AA9EB0B092244554614469144B2
:1053700035E0019F92E7023441463046029B984750
:105380000028E7DAE6E640F206410D42E2D015F0E9
:10539000020F14BF2B20202015F4806F04F10104AC
:1053A000414618BF2D20E9E7029B4146302098472F
:1053B000002804F10104CEDACCE606AB013D4146FB
:1053C000585D029B98470028CADAC3E6029B414613
:1053D00020209847002804F10104FFF6BBAEA9EB9A
:1053E0000403002BF2DCBFE570477FB50BAB0593E0
:1053F00003930A9B02930023CDE900331846FBF781
:10540000F1FC07B05DF804FB836800EBC101B3F564
:10541000004F2CBF51F8220031F81200704700EB0A
:10542000C1018068B0F5004F2CBF41F8223021F84F
:105430001230704708B50122FFF7E6FFD04008BDE3
:105440008368B3F5004F00EBC10108D34B681AB174
:1054500043F001034B60704723F00103FAE74B88E8
:105460001AB143F001034B80704723F00103FAE7C0
:1054700053000122FFF7D3BFB0F5004F34BF042320
:105480000823481C0833A0EBD300B0FA80F0C0F129
:105490001F0070472DE9F0410D4686680446FFF76E
:1054A000C9FFB6F5004F014601D3012832D030467E
:1054B000FFF7E2FF04EB80010E6996B9E368012271
:1054C00082401343E36002220D612B4629462046A9
:1054D000FFF7A5FF032229462046BDE8F041FFF76C
:1054E0009EBF022231462046FFF78EFF2946034623
:1054F00007462046FFF793FF0322334629462046FE
:10550000FFF78DFF39462B462046FFF788FF022222
:105510003146E1E7BDE8F081B2F5802F2CBF0823CA
:105520000423D21A2DE9F0418C18CD1D25F0070572
:1055300024F00704641B0026E40805602146AC60E3
:10554000EE602046FFF798FF421D9200013002F105
:1055500007074FEAD707A2F110023146B8BF32461B
:1055600005F1100000F02AFF3A4631462846FFF7C1
:105570007FFF3346324631462846FFF750FFA4EB03
:105580000708284631460122FFF75AFF42463946AE
:10559000FFF76EFF3B46324639462846FFF73FFF8E
:1055A00021462846FFF764FF4346324621462846F7
:1055B000FFF735FF214628460122FFF741FF394614
:1055C000BDE8F041FFF766BF2DE9F04706460D46FE
:1055D000174698462BB398F8004093F80190DB7873
:1055E000A40004EB430498F802301C4444444FF0F8
:1055F000000ACA4509D3D8F8042008F1080339463F
:105600003046AC46BDE8F047604714F8013B48F827
:1056100023402046FAF78EFD013004440AF1010AC6
:10562000E7E76FF01500BDE8F087002070470FB482
:1056300007B504A951F8040B019100F0F5F803B087
:105640005DF804EB04B07047038B13F0070305D13A
:105650000368002B0CBF002003207047022B05D1EC
:10566000408BB0FA80F0400980007047012B05D1D3
:105670000368002B0CBF00200520704700207047F6
:1056800010B50C4600B111B96FF0150010BD081D22
:1056900000F093F80028F9D1A368032BF6D9F3E7BB
:1056A0002DE9F0410D4607461946281D90461E4635
:1056B00000F094F8044638B133464246294638464D
:1056C000A446BDE8F0416047BDE8F08110B4EFF3B7
:1056D0001182202484F31288BFF36F8F416110BCC4
:1056E0000121FBF76BB938B50C46054658B151B1ED
:1056F0000B6843B14B6833B11C22002100F05EFE01
:105700002C61002038BD6FF01500FBE770B5054631
:105710000E46FFF7B5FF041E14DBEFF311822023C2
:1057200083F31288BFF36F8F6B8B2C8B4FF6FF7157
:105730008B4204F0070407D182F31188BFF36F8F07
:105740006FF00A04204670BD022C0CD101336B832C
:1057500082F31188BFF36F8F00232246314628461B
:10576000FFF79EFFEEE7062C14D8DFE804F00413E1
:105770001313041A0400002333606B683BB9C5E9B6
:105780000066ACB902212846FBF718F9DAE71E607B
:105790006E60F6E782F31188BFF36F8F6FF0040439
:1057A000D0E782F31188BFF36F8F6FF08504C9E7EC
:1057B00082F31188BFF36F8FC4E7034658B1426884
:1057C00002F00302012A03D0032A04D1026812B1B5
:1057D0000020986070476FF0150070474268816044
:1057E00002F00302032A4FF0000203460CBF0068D8
:1057F00010465A60704770470020704700F041BB68
:105800000346BFF35B8F53E8000F421C43E80021BF
:105810000029F8D1BFF35B8F704708B50021084617
:10582000FBF7DAF9002008BD1FB50023CDE902011E
:10583000CDE900331A4619461846FBF7D3FA05B0EE
:105840005DF804FB70470020704770B50E461546A2
:105850001946044618B9BDE87040FBF76DBA33B17C
:10586000C2F34A231030120D184400F099FDC4E928
:1058700000562046BDE87040FBF776BA7FB50BAB0B
:10588000059303930A9B02930023CDE90033022280
:105890001846FBF7A7FA07B05DF804FBF8B5064613
:1058A0000D4614461F4604B9F8BD214628463A461F
:1058B000B047241A0544F6E707B5D1E900328DF860
:1058C0000700526801210DF107009847002003B03E
:1058D0005DF804FB0A2838B504460D4602D10D20B8
:1058E000FFF7EAFF29462046FFF7E6FF002038BD14
:1058F0002DE9F043054687B008460E8891F80090E0
:10590000D1F808800C461746FBF7C2FA011EC6F311
:105910008216C9F3C2091EDB4846FBF741FA03466B
:105920002146608851F8102B0196C2F34A22002AC2
:1059300001EB0204C0F30B1008BF00210022CDE9E7
:105940000407CDE90214009241462846FBF7CCFA41
:1059500007B0BDE8F0830023E2E743681B685B689B
:1059600000201961704743681B681A6852685360C9
:1059700070472DE9F04143681B685A680121117591
:105980001D68D5E90136D3E900482F681CB96B685A
:105990001C60BDE8F081214630464246B847241AD3
:1059A0000644F3E770B543681D686B6818690C46D8
:1059B000FBF77AF9214603460F222868BDE87040BC
:1059C00018477FB50BAB059303930A9B0293002303
:1059D000CDE9003301221846FBF704FA07B05DF861
:1059E00004FB01460068FBF79BBC08B5FBF7FAFC1B
:1059F000BDE80840FBF71ABD7FB50BAB05930393D9
:105A00000A9B02930023CDE9003301221846FBF7DD
:105A1000E9F907B05DF804FB00210120FBF780BC29
:105A200061B662B680F31188BFF36F8F704772B6AC
:105A3000002383F31188BFF36F8FBFF34F8F30BF05
:105A400062B6BFF36F8F704772B6002383F311887D
:105A5000BFF36F8FBFF34F8F20BF80F31188BFF369
:105A60006F8F62B67047202809D9B0F1004F08D86F
:105A70000138B0FA80F0C0F11F00400070470820E4
:105A800070473E2070477FB50BAB059303930A9B8D
:105A900002930023CDE9003301221846FBF7A2F957
:105AA00007B05DF804FB08B5D1E904319847002040
:105AB00008BD08B5FCF7F0FA002008BD0369C9B2BB
:105AC0000C2201FB0233186C00F00700704770B520
:105AD000C9B20369EFF31185202484F31288BFF360
